:02000000522B81
:10000800FF00030E8301A6000A08A7008A017008F2
:10001800A0008B1C13280130A300F5308B050B1DA5
:1000280020282308013A031D2028F8308100A10A5E
:100038000319A20AFB308B052008F00027088A0064
:0A004800260E8300FF0E7F0E090054
:1000520083120313F101F20153087202031D3328C4
:100062005208710203184728F301F40101307402A7
:10007200031D3D282C30730203184328F30A031989
:0E008200F40A3728F10A0319F20A2D280800A3
:1000900083120313F801F9011030FC00710DF80D03
:1000A000F90D7408F8027508031C750FF90203189E
:1000B00060287408F80775080318750FF90703100E
:0A00C000F00DF10DFC0B4E280800B6
:1000CA0083120313F101F20153087202031D6F2810
:1000DA005208710203187528F10A0319F20A6928ED
:0200EA0008000C
:1000EC00FB308312031388050530D2000030D30097
:1000FC00652008151430D2000030D3006520FB3089
:10010C0088050A30D2000030D3006520DC30CE00E8
:10011C000530CF000808D000D01F9528A128013049
:10012C00CE02031CCF034F08003C031D9F284E0832
:10013C00003C031C902800304F06031DA7280030FC
:10014C004E06031DAE28E730F0000330F100E8281E
:10015C008F018E011014C430CE000930CF00080876
:10016C00D000D01BBA28C6280130CE02031CCF0306
:10017C004F08003C031DC4284E08003C031CB52846
:10018C00FE30900500304F06031DCE2800304E0681
:10019C00031DD528E730F0000330F100E8280F08E4
:1001AC00CC00CD014C08F100F0010E08F00703184B
:1001BC00F10A7008CC007108CD003A30F400003020
:0601CC00F50048200800C8
:0E01D2008312031325088A0024088200080007
:1001E000FD308312031388050530D2000030D300A0
:1001F000652088141430D2000030D3006520FD3013
:1002000088050A30D2000030D3006520DC30CE00F3
:100210000530CF000808D000501F0F291B290130DE
:10022000CE02031CCF034F08003C031D19294E08C2
:10023000003C031C0A2900304F06031D2129003011
:100240004E06031D2829E730F0000330F100622933
:100250008F018E011014C430CE000930CF00080881
:10026000D000501B342940290130CE02031CCF039B
:100270004F08003C031D3E294E08003C031C2F295B
:10028000FE30900500304F06031D482900304E0611
:10029000031D4F29E730F0000330F10062290F08F9
:1002A000CC00CD014C08F100F0010E08F007031856
:1002B000F10A7008CC007108CD003A30F40000302B
:0602C000F50048200800D3
:1002C6000030831203134D02031D6B2902304C02CA
:1002D60003187129E730CC000330CD0000304F02FF
:1002E600031D772902304E0203187D29E730CE0020
:1002F6000330CF0000305102031D83290230500223
:1003060003188929E730D0000330D1004D084F0289
:10031600031D8F294C084E0203189D294C08F20034
:100326004D08F3004E08CC004F08CD007208CE00F1
:100336007308CF004F085102031DA3294E0850022F
:100346000318B1294E08F2004F08F3005008CE00FA
:100356005108CF007208D0007308D1004D084F0233
:10036600031DB7294C084E020318C5294C08F20094
:100376004D08F3004E08CC004F08CD007208CE00A1
:0E0386007308CF004E08F0004F08F100080089
:10039400FE308312031388050530D2000030D300E9
:1003A400652008141430D2000030D3006520FE30DC
:1003B40088050A30D2000030D3006520DC30CE003E
:1003C4000530CF0008300705F1007108003A031D1D
:1003D400F4294E084F040319F4290130CE02031CFA
:1003E400CF03E42900304F06031DFA2900304E06DE
:1003F400031D012AE730F0000330F1003A2A8F018F
:100404008E011014C430CE000930CF000830070527
:10041400F1007108003A0319182A4E084F04031911
:10042400182A0130CE02031CCF03082AFE3090059F
:1004340000304F06031D202A00304E06031D272AD4
:10044400E730F0000330F1003A2A0F08CC00CD0168
:100454004C08F100F0010E08F0070318F10A7008C7
:10046400CC007108CD003A30F4000030F50048208B
:0204740008007E
:100476000130831203134C020318432A0130CC00C7
:100486004C08023C0318492A0230CC004C08143CA4
:10049600CE00CD0119304D0203185E2A86164C088F
:1004A600D200D3012920DF3086054E08D200D301C1
:0804B6002920CD0A4D2A08009F
:1004BE00C130831203130605F0000C307004860061
:0A04CE004808950048089B0008004C
:1004D800CA217008C8007108C9000430D200003071
:1004E800D3002920CA217008CA007108CB00043043
:1004F800D2000030D3002920CA214808CC0049087E
:10050800CD004A08CE004B08CF007008D000710813
:06051800D1006321080080
:0C051E00013083120313CC003B220800C4
:10052A000130831203139F001430D2000030D3002D
:10053A0065201F151F1DA22A9F2A1E08F100F0011F
:0C054A0083161E08F0070318F10A0800D1
:1005560007308312031392000C3097000C309D0075
:08056600FA3083169200080030
:10056E00C130831203130605F000123070048600AA
:0A057E004808950048089B0008009B
:10058800F5308312031386051430860449089B004E
:0605980048089500080070
:10059E00F0207008C8007108C9000430D200003085
:1005AE00D3002920F0207008CA007108CB00043057
:1005BE00D2000030D3002920F0204808CC00490892
:1005CE00CD004A08CE004B08CF007008D00071084D
:0605DE00D10063210800BA
:1005E40083120313FB01FA01F9018030F800F10CC6
:1005F400F00C031C062B7408F90775080318750F13
:10060400FA070318FB0A0310F01F0E2B7408FA07ED
:1006140075080318750FFB07FB0CFA0CF90CF80CA2
:10062400031CF92A7B08F3007A08F2007908F10028
:060634007808F000080048
:0C063A00023083120313CC003B220800A6
:1006460076207008C8007108C9000430D200003056
:10065600D300292076207008CA007108CB00043028
:10066600D2000030D300292076204808CC00490863
:10067600CD004A08CE004B08CF007008D0007108A4
:06068600D1006321080011
:10068C00E9208A110A128000840AA40A0319A50A17
:08069C00F003031D462B0800CA
:1006A40083120313A101A201A3010130BE0058303B
:1006B400BF000230C000C101C2010430C3004B308E
:1006C400C4000330C5001430C6000030C7008E30AB
:1006D40083169F0007308500C130860008308700EC
:1006E400F03088008312850186018701880110306B
:1006F4009000AB228312C801C901C4221D238316B2
:10070400011790308B0083122308003A031D8B2BB2
:10071400852BED308B05C73083168100F8308312AA
:100724008100A101A201FB308B058B160B30220244
:10073400031D9E2BB83021020318A12B982BDF3008
:100744008B05FB308B05BC01BD013E08043A031D3B
:10075400CA2BC801C901C42205303D02031DB42BB4
:10076400DC303C020318BB2B0000BC0A0319BD0A91
:10077400AE2B8F2286160230D2000030D3002920FF
:10078400DF3086051230D2000030D3002920BC2B84
:100794003E08013A0319D32B3E08023A0319D32B1E
:1007A400172C952270088312A8007108A9003E082E
:1007B400013A031DED2B29084002031DE32B2808F1
:1007C4003F020318ED2B0230BE008815C101C80199
:1007D400C901C422172C3E08023A031D172C4008F5
:1007E4002902031DF72B3F0828020318162CC10AFF
:1007F40005304102031C152C0330BE00F730880578
:10080400C1013C30C8003C30C900C4225E30D20073
:100814000130D3002920C801C901C4223C30D200D0
:100824000030D3002920172CC1013E08013A031DD2
:10083400B32C10300805F0007008B0002030080513
:10084400B10070080319972C31080319972C323022
:10085400C8003230C900C4220F30D2000030D300A7
:10086400292010300805F0007008B0002030080579
:10087400B10070080319962C31080319962CC8018D
:10088400C901C4222830D2000030D30029203230DC
:10089400C800B722B201B301081E682CB20A0319BA
:1008A400B30A8030003AF00080307002031D642CDB
:1008B4000030013C031D642C3308863C031D642C6A
:1008C4003208A03C0318672C682C4E2CB201B301EB
:1008D400081A842CB20A0319B30A8030003AF000D3
:1008E40080307002031D802C0030033C031D802CDB
:1008F40033080D3C031D802C3208403C0318832C24
:10090400842C6A2CC801C901C4222830D2000030CA
:10091400D30029203C30C8003C30C900C4225A30DE
:10092400D2000030D3002920B22C30080319A22CA5
:100934003108031DA22C5030C800C901C422B22CB6
:1009440031080319AD2C3008031DAD2CC8015030FB
:10095400C900C422B22C3C30C8003C30C900C422B7
:10096400A62E3E08023A031DDD2C10300805F000C7
:100974007008B00020300805B10070080319CB2CB2
:100984003108031DCB2C4630C8001430C900C422E2
:10099400DC2C31080319D72C3008031DD72C143054
:1009A400C8004630C900C422DC2C4630C80046309A
:1009B400C900C422A62E3E08033A031DA62E1030F9
:1009C4000805F0007008B00020300805B100700878
:1009D4000319F82C31080319F82CC20A0530420215
:1009E400031CF72C0430BE00A52BF92CC201CA212C
:1009F4007008AA007108AB007108033A031D042DA6
:100A0400E73070060319132D00302B02031D0C2D43
:100A140011302A020318132D6C227008AA007108E1
:100A2400AB002B08033A031D192DE7302A060319DE
:100A3400762D00302B02031D212D16302A020318B7
:100A4400762DC801C901C422B430D200D3012920B3
:100A5400CF227008AC007108AD0023237008AE00EB
:100A64007108AF0071082D02031D3A2D70082C0285
:100A74000318402D7830C800B722432D7830C800C1
:100A84005F22B201B30100303302031D4B2D1E302F
:100A9400320203186D2DCA217008AA007108AB0038
:100AA4007108033A031D582DE73070060319632DAE
:100AB4002B08003C031D602D2A081E3C031C632DDB
:100AC400642D6D2D1930D2000030D3002920B20AD4
:100AD4000319B30A452DC801C901C4223230D2001A
:100AE4000030D3002920A62E6C227008AA007108B9
:100AF400AB007108033A031D812DE730700603191A
:100B04008C2D2B08003C031D892D2A08323C031C24
:100B14008C2D8F2D4B30C400A62D2B08003C031DBB
:100B2400952D2A081E3C03189A2D3730C400A62D93
:100B340000302B02031DA02D16302A02031CA52D04
:100B44002830C400A62DA52BCF227008AC00710854
:100B5400AD0023237008AE007108AF007108033A9A
:100B6400031DB62DE73070060319C12D2F08003C74
:100B7400031DBE2D2E08283C031CC12DC52D283075
:100B8400AE000030AF002D08033A031DCB2DE73033
:100B94002C060319D62D2D08003C031DD32D2C083B
:100BA400283C031CD62DDA2D2830AC000030AD00D3
:100BB4002C082E02F3002D08031C013E2F02F40022
:100BC4007308B4007408B5004508F100F2018030E0
:100BD4007406F000803072067002031DF32D710854
:100BE400730203180F2E4508F000F1017008003C51
:100BF400F2007108031C013EF301F3028030730616
:100C0400F000803035067002031D0A2E340872028B
:100C140003180F2EB401B501152E1E304402031C17
:100C2400152E0A30C4024308F000F1013408F40020
:100C34003508F500F2227008B6007108B70080305C
:100C44004706F200803071067202031D2B2E7008D5
:100C540046020318312E4608B6004708B700460876
:100C6400003CF1004708031C013EF201F20280300F
:100C74003706F000803072067002031D432E71089F
:100C8400360203184D2E4608003CB6004708031CE4
:100C9400013EB701B7024408F000F10136087002C2
:100CA400F2003708031C013E7102F3007208B80019
:100CB4007308B9004408BA00BB013608BA073708FC
:100CC4000318013EBB078030F000803073067002C9
:100CD400031D6E2E72085A3C0318742E5A30B80045
:100CE4000030B90080303906F00080307002031DF6
:100CF4007D2E193038020318832E1930B8000030C5
:100D0400B9008030F00080303B067002031D8C2E49
:100D14003A085A3C0318922E5A30BA000030BB00ED
:100D240080303B06F00080307002031D9B2E19308A
:100D34003A020318A12E1930BA000030BB0038085B
:0C0D4400C8003A08C900C422A52BA72E45
:02400E004A2F37
:00000001FF
